{
  "_format": "hh-sol-artifact-1",
  "contractName": "TourSecureDigitalID",
  "sourceName": "contracts/TourSecureDigitalID.sol",
  "abi": [
    {
      "inputs": [
        {
          "internalType": "address",
          "name": "initialOwner",
          "type": "address"
        }
      ],
      "stateMutability": "nonpayable",
      "type": "constructor"
    },
    {
      "inputs": [],
      "name": "AlreadyIssued",
      "type": "error"
    },
    {
      "inputs": [
        {
          "internalType": "address",
          "name": "sender",
          "type": "address"
        },
        {
          "internalType": "uint256",
          "name": "tokenId",
          "type": "uint256"
        },
        {
          "internalType": "address",
          "name": "owner",
          "type": "address"
        }
      ],
      "name": "ERC721IncorrectOwner",
      "type": "error"
    },
    {
      "inputs": [
        {
          "internalType": "address",
          "name": "operator",
          "type": "address"
        },
        {
          "internalType": "uint256",
          "name": "tokenId",
          "type": "uint256"
        }
      ],
      "name": "ERC721InsufficientApproval",
      "type": "error"
    },
    {
      "inputs": [
        {
          "internalType": "address",
          "name": "approver",
          "type": "address"
        }
      ],
      "name": "ERC721InvalidApprover",
      "type": "error"
    },
    {
      "inputs": [
        {
          "internalType": "address",
          "name": "operator",
          "type": "address"
        }
      ],
      "name": "ERC721InvalidOperator",
      "type": "error"
    },
    {
      "inputs": [
        {
          "internalType": "address",
          "name": "owner",
          "type": "address"
        }
      ],
      "name": "ERC721InvalidOwner",
      "type": "error"
    },
    {
      "inputs": [
        {
          "internalType": "address",
          "name": "receiver",
          "type": "address"
        }
      ],
      "name": "ERC721InvalidReceiver",
      "type": "error"
    },
    {
      "inputs": [
        {
          "internalType": "address",
          "name": "sender",
          "type": "address"
        }
      ],
      "name": "ERC721InvalidSender",
      "type": "error"
    },
    {
      "inputs": [
        {
          "internalType": "uint256",
          "name": "tokenId",
          "type": "uint256"
        }
      ],
      "name": "ERC721NonexistentToken",
      "type": "error"
    },
    {
      "inputs": [],
      "name": "InvalidToken",
      "type": "error"
    },
    {
      "inputs": [],
      "name": "NonTransferable",
      "type": "error"
    },
    {
      "inputs": [],
      "name": "NotHolderOrIssuer",
      "type": "error"
    },
    {
      "inputs": [
        {
          "internalType": "address",
          "name": "owner",
          "type": "address"
        }
      ],
      "name": "OwnableInvalidOwner",
      "type": "error"
    },
    {
      "inputs": [
        {
          "internalType": "address",
          "name": "account",
          "type": "address"
        }
      ],
      "name": "OwnableUnauthorizedAccount",
      "type": "error"
    },
    {
      "inputs": [],
      "name": "RevokedToken",
      "type": "error"
    },
    {
      "anonymous": false,
      "inputs": [
        {
          "indexed": true,
          "internalType": "address",
          "name": "owner",
          "type": "address"
        },
        {
          "indexed": true,
          "internalType": "address",
          "name": "approved",
          "type": "address"
        },
        {
          "indexed": true,
          "internalType": "uint256",
          "name": "tokenId",
          "type": "uint256"
        }
      ],
      "name": "Approval",
      "type": "event"
    },
    {
      "anonymous": false,
      "inputs": [
        {
          "indexed": true,
          "internalType": "address",
          "name": "owner",
          "type": "address"
        },
        {
          "indexed": true,
          "internalType": "address",
          "name": "operator",
          "type": "address"
        },
        {
          "indexed": false,
          "internalType": "bool",
          "name": "approved",
          "type": "bool"
        }
      ],
      "name": "ApprovalForAll",
      "type": "event"
    },
    {
      "anonymous": false,
      "inputs": [
        {
          "indexed": false,
          "internalType": "bool",
          "name": "allowed",
          "type": "bool"
        }
      ],
      "name": "HolderUpdatePermissionChanged",
      "type": "event"
    },
    {
      "anonymous": false,
      "inputs": [
        {
          "indexed": false,
          "internalType": "uint256",
          "name": "tokenId",
          "type": "uint256"
        }
      ],
      "name": "Locked",
      "type": "event"
    },
    {
      "anonymous": false,
      "inputs": [
        {
          "indexed": true,
          "internalType": "uint256",
          "name": "tokenId",
          "type": "uint256"
        },
        {
          "indexed": false,
          "internalType": "bytes32",
          "name": "idHash",
          "type": "bytes32"
        },
        {
          "indexed": false,
          "internalType": "string",
          "name": "metadataURI",
          "type": "string"
        }
      ],
      "name": "MetadataUpdated",
      "type": "event"
    },
    {
      "anonymous": false,
      "inputs": [
        {
          "indexed": true,
          "internalType": "address",
          "name": "previousOwner",
          "type": "address"
        },
        {
          "indexed": true,
          "internalType": "address",
          "name": "newOwner",
          "type": "address"
        }
      ],
      "name": "OwnershipTransferred",
      "type": "event"
    },
    {
      "anonymous": false,
      "inputs": [
        {
          "indexed": true,
          "internalType": "uint256",
          "name": "tokenId",
          "type": "uint256"
        }
      ],
      "name": "Revoked",
      "type": "event"
    },
    {
      "anonymous": false,
      "inputs": [
        {
          "indexed": true,
          "internalType": "address",
          "name": "from",
          "type": "address"
        },
        {
          "indexed": true,
          "internalType": "address",
          "name": "to",
          "type": "address"
        },
        {
          "indexed": true,
          "internalType": "uint256",
          "name": "tokenId",
          "type": "uint256"
        }
      ],
      "name": "Transfer",
      "type": "event"
    },
    {
      "anonymous": false,
      "inputs": [
        {
          "indexed": false,
          "internalType": "uint256",
          "name": "tokenId",
          "type": "uint256"
        }
      ],
      "name": "Unlocked",
      "type": "event"
    },
    {
      "inputs": [
        {
          "internalType": "address",
          "name": "to",
          "type": "address"
        },
        {
          "internalType": "uint256",
          "name": "tokenId",
          "type": "uint256"
        }
      ],
      "name": "approve",
      "outputs": [],
      "stateMutability": "nonpayable",
      "type": "function"
    },
    {
      "inputs": [
        {
          "internalType": "address",
          "name": "owner",
          "type": "address"
        }
      ],
      "name": "balanceOf",
      "outputs": [
        {
          "internalType": "uint256",
          "name": "",
          "type": "uint256"
        }
      ],
      "stateMutability": "view",
      "type": "function"
    },
    {
      "inputs": [
        {
          "internalType": "uint256",
          "name": "tokenId",
          "type": "uint256"
        }
      ],
      "name": "getApproved",
      "outputs": [
        {
          "internalType": "address",
          "name": "",
          "type": "address"
        }
      ],
      "stateMutability": "view",
      "type": "function"
    },
    {
      "inputs": [
        {
          "internalType": "uint256",
          "name": "tokenId",
          "type": "uint256"
        }
      ],
      "name": "getRecord",
      "outputs": [
        {
          "components": [
            {
              "internalType": "bytes32",
              "name": "idHash",
              "type": "bytes32"
            },
            {
              "internalType": "string",
              "name": "metadataURI",
              "type": "string"
            },
            {
              "internalType": "uint64",
              "name": "issuedAt",
              "type": "uint64"
            },
            {
              "internalType": "uint64",
              "name": "updatedAt",
              "type": "uint64"
            },
            {
              "internalType": "bool",
              "name": "revoked",
              "type": "bool"
            }
          ],
          "internalType": "struct TourSecureDigitalID.Record",
          "name": "",
          "type": "tuple"
        }
      ],
      "stateMutability": "view",
      "type": "function"
    },
    {
      "inputs": [],
      "name": "holderCanUpdate",
      "outputs": [
        {
          "internalType": "bool",
          "name": "",
          "type": "bool"
        }
      ],
      "stateMutability": "view",
      "type": "function"
    },
    {
      "inputs": [
        {
          "internalType": "address",
          "name": "user",
          "type": "address"
        }
      ],
      "name": "identityOf",
      "outputs": [
        {
          "internalType": "bool",
          "name": "exists",
          "type": "bool"
        },
        {
          "internalType": "uint256",
          "name": "tokenId",
          "type": "uint256"
        },
        {
          "internalType": "bool",
          "name": "revoked",
          "type": "bool"
        }
      ],
      "stateMutability": "view",
      "type": "function"
    },
    {
      "inputs": [
        {
          "internalType": "address",
          "name": "owner",
          "type": "address"
        },
        {
          "internalType": "address",
          "name": "operator",
          "type": "address"
        }
      ],
      "name": "isApprovedForAll",
      "outputs": [
        {
          "internalType": "bool",
          "name": "",
          "type": "bool"
        }
      ],
      "stateMutability": "view",
      "type": "function"
    },
    {
      "inputs": [
        {
          "internalType": "address",
          "name": "to",
          "type": "address"
        },
        {
          "internalType": "bytes32",
          "name": "idHash",
          "type": "bytes32"
        },
        {
          "internalType": "string",
          "name": "metadataURI",
          "type": "string"
        }
      ],
      "name": "issue",
      "outputs": [
        {
          "internalType": "uint256",
          "name": "tokenId",
          "type": "uint256"
        }
      ],
      "stateMutability": "nonpayable",
      "type": "function"
    },
    {
      "inputs": [
        {
          "internalType": "uint256",
          "name": "tokenId",
          "type": "uint256"
        }
      ],
      "name": "locked",
      "outputs": [
        {
          "internalType": "bool",
          "name": "",
          "type": "bool"
        }
      ],
      "stateMutability": "view",
      "type": "function"
    },
    {
      "inputs": [],
      "name": "name",
      "outputs": [
        {
          "internalType": "string",
          "name": "",
          "type": "string"
        }
      ],
      "stateMutability": "view",
      "type": "function"
    },
    {
      "inputs": [],
      "name": "owner",
      "outputs": [
        {
          "internalType": "address",
          "name": "",
          "type": "address"
        }
      ],
      "stateMutability": "view",
      "type": "function"
    },
    {
      "inputs": [
        {
          "internalType": "uint256",
          "name": "tokenId",
          "type": "uint256"
        }
      ],
      "name": "ownerOf",
      "outputs": [
        {
          "internalType": "address",
          "name": "",
          "type": "address"
        }
      ],
      "stateMutability": "view",
      "type": "function"
    },
    {
      "inputs": [
        {
          "internalType": "uint256",
          "name": "",
          "type": "uint256"
        }
      ],
      "name": "records",
      "outputs": [
        {
          "internalType": "bytes32",
          "name": "idHash",
          "type": "bytes32"
        },
        {
          "internalType": "string",
          "name": "metadataURI",
          "type": "string"
        },
        {
          "internalType": "uint64",
          "name": "issuedAt",
          "type": "uint64"
        },
        {
          "internalType": "uint64",
          "name": "updatedAt",
          "type": "uint64"
        },
        {
          "internalType": "bool",
          "name": "revoked",
          "type": "bool"
        }
      ],
      "stateMutability": "view",
      "type": "function"
    },
    {
      "inputs": [],
      "name": "renounceOwnership",
      "outputs": [],
      "stateMutability": "nonpayable",
      "type": "function"
    },
    {
      "inputs": [
        {
          "internalType": "uint256",
          "name": "tokenId",
          "type": "uint256"
        }
      ],
      "name": "revoke",
      "outputs": [],
      "stateMutability": "nonpayable",
      "type": "function"
    },
    {
      "inputs": [
        {
          "internalType": "address",
          "name": "from",
          "type": "address"
        },
        {
          "internalType": "address",
          "name": "to",
          "type": "address"
        },
        {
          "internalType": "uint256",
          "name": "tokenId",
          "type": "uint256"
        }
      ],
      "name": "safeTransferFrom",
      "outputs": [],
      "stateMutability": "nonpayable",
      "type": "function"
    },
    {
      "inputs": [
        {
          "internalType": "address",
          "name": "from",
          "type": "address"
        },
        {
          "internalType": "address",
          "name": "to",
          "type": "address"
        },
        {
          "internalType": "uint256",
          "name": "tokenId",
          "type": "uint256"
        },
        {
          "internalType": "bytes",
          "name": "data",
          "type": "bytes"
        }
      ],
      "name": "safeTransferFrom",
      "outputs": [],
      "stateMutability": "nonpayable",
      "type": "function"
    },
    {
      "inputs": [
        {
          "internalType": "address",
          "name": "operator",
          "type": "address"
        },
        {
          "internalType": "bool",
          "name": "approved",
          "type": "bool"
        }
      ],
      "name": "setApprovalForAll",
      "outputs": [],
      "stateMutability": "nonpayable",
      "type": "function"
    },
    {
      "inputs": [
        {
          "internalType": "bool",
          "name": "allowed",
          "type": "bool"
        }
      ],
      "name": "setHolderCanUpdate",
      "outputs": [],
      "stateMutability": "nonpayable",
      "type": "function"
    },
    {
      "inputs": [
        {
          "internalType": "bytes4",
          "name": "interfaceId",
          "type": "bytes4"
        }
      ],
      "name": "supportsInterface",
      "outputs": [
        {
          "internalType": "bool",
          "name": "",
          "type": "bool"
        }
      ],
      "stateMutability": "view",
      "type": "function"
    },
    {
      "inputs": [],
      "name": "symbol",
      "outputs": [
        {
          "internalType": "string",
          "name": "",
          "type": "string"
        }
      ],
      "stateMutability": "view",
      "type": "function"
    },
    {
      "inputs": [
        {
          "internalType": "address",
          "name": "",
          "type": "address"
        }
      ],
      "name": "tokenOf",
      "outputs": [
        {
          "internalType": "uint256",
          "name": "",
          "type": "uint256"
        }
      ],
      "stateMutability": "view",
      "type": "function"
    },
    {
      "inputs": [
        {
          "internalType": "uint256",
          "name": "tokenId",
          "type": "uint256"
        }
      ],
      "name": "tokenURI",
      "outputs": [
        {
          "internalType": "string",
          "name": "",
          "type": "string"
        }
      ],
      "stateMutability": "view",
      "type": "function"
    },
    {
      "inputs": [
        {
          "internalType": "address",
          "name": "from",
          "type": "address"
        },
        {
          "internalType": "address",
          "name": "to",
          "type": "address"
        },
        {
          "internalType": "uint256",
          "name": "tokenId",
          "type": "uint256"
        }
      ],
      "name": "transferFrom",
      "outputs": [],
      "stateMutability": "nonpayable",
      "type": "function"
    },
    {
      "inputs": [
        {
          "internalType": "address",
          "name": "newOwner",
          "type": "address"
        }
      ],
      "name": "transferOwnership",
      "outputs": [],
      "stateMutability": "nonpayable",
      "type": "function"
    },
    {
      "inputs": [
        {
          "internalType": "uint256",
          "name": "tokenId",
          "type": "uint256"
        },
        {
          "internalType": "bytes32",
          "name": "newHash",
          "type": "bytes32"
        },
        {
          "internalType": "string",
          "name": "newURI",
          "type": "string"
        }
      ],
      "name": "update",
      "outputs": [],
      "stateMutability": "nonpayable",
      "type": "function"
    },
    {
      "inputs": [
        {
          "internalType": "address",
          "name": "user",
          "type": "address"
        },
        {
          "internalType": "bytes32",
          "name": "expectedHash",
          "type": "bytes32"
        }
      ],
      "name": "verify",
      "outputs": [
        {
          "internalType": "bool",
          "name": "ok",
          "type": "bool"
        }
      ],
      "stateMutability": "view",
      "type": "function"
    }
  ],
  "bytecode": "0x60806040526001600a60006101000a81548160ff0219169083151502179055503480156200002c57600080fd5b5060405162003d7e38038062003d7e8339818101604052810190620000529190620002a3565b806040518060400160405280601581526020017f546f7572536563757265204469676974616c20494400000000000000000000008152506040518060400160405280600581526020017f54534449440000000000000000000000000000000000000000000000000000008152508160009081620000d091906200054f565b508060019081620000e291906200054f565b505050600073ffffffffffffffffffffffffffffffffffffffff168173ffffffffffffffffffffffffffffffffffffffff16036200015a5760006040517f1e4fbdf700000000000000000000000000000000000000000000000000000000815260040162000151919062000647565b60405180910390fd5b6200016b816200017360201b60201c565b505062000664565b6000600660009054906101000a900473ffffffffffffffffffffffffffffffffffffffff16905081600660006101000a81548173ffffffffffffffffffffffffffffffffffffffff021916908373ffffffffffffffffffffffffffffffffffffffff1602179055508173ffffffffffffffffffffffffffffffffffffffff168173ffffffffffffffffffffffffffffffffffffffff167f8be0079c531659141344cd1fd0a4f28419497f9722a3daafe3b4186f6b6457e060405160405180910390a35050565b600080fd5b600073ffffffffffffffffffffffffffffffffffffffff82169050919050565b60006200026b826200023e565b9050919050565b6200027d816200025e565b81146200028957600080fd5b50565b6000815190506200029d8162000272565b92915050565b600060208284031215620002bc57620002bb62000239565b5b6000620002cc848285016200028c565b91505092915050565b600081519050919050565b7f4e487b7100000000000000000000000000000000000000000000000000000000600052604160045260246000fd5b7f4e487b7100000000000000000000000000000000000000000000000000000000600052602260045260246000fd5b600060028204905060018216806200035757607f821691505b6020821081036200036d576200036c6200030f565b5b50919050565b60008190508160005260206000209050919050565b60006020601f8301049050919050565b600082821b905092915050565b600060088302620003d77fffffffffffffffffffffffffffffffffffffffffffffffffffffffffffffffff8262000398565b620003e3868362000398565b95508019841693508086168417925050509392505050565b6000819050919050565b6000819050919050565b6000620004306200042a6200042484620003fb565b62000405565b620003fb565b9050919050565b6000819050919050565b6200044c836200040f565b620004646200045b8262000437565b848454620003a5565b825550505050565b600090565b6200047b6200046c565b6200048881848462000441565b505050565b5b81811015620004b057620004a460008262000471565b6001810190506200048e565b5050565b601f821115620004ff57620004c98162000373565b620004d48462000388565b81016020851015620004e4578190505b620004fc620004f38562000388565b8301826200048d565b50505b505050565b600082821c905092915050565b6000620005246000198460080262000504565b1980831691505092915050565b60006200053f838362000511565b9150826002028217905092915050565b6200055a82620002d5565b67ffffffffffffffff811115620005765762000575620002e0565b5b6200058282546200033e565b6200058f828285620004b4565b600060209050601f831160018114620005c75760008415620005b2578287015190505b620005be858262000531565b8655506200062e565b601f198416620005d78662000373565b60005b828110156200060157848901518255600182019150602085019450602081019050620005da565b868310156200062157848901516200061d601f89168262000511565b8355505b6001600288020188555050505b505050505050565b62000641816200025e565b82525050565b60006020820190506200065e600083018462000636565b92915050565b61370a80620006746000396000f3fe608060405234801561001057600080fd5b50600436106101a95760003560e01c80636352211e116100f9578063b45a3c0e11610097578063c87b56dd11610071578063c87b56dd14610508578063e906a9e714610538578063e985e9c514610556578063f2fde38b14610586576101a9565b8063b45a3c0e1461048a578063b88d4fde146104ba578063c6345626146104d6576101a9565b806388dc2304116100d357806388dc2304146104165780638da5cb5b1461043257806395d89b4114610450578063a22cb4651461046e576101a9565b80636352211e146103ac57806370a08231146103dc578063715018a61461040c576101a9565b806320c5429b1161016657806342842e0e1161014057806342842e0e1461031457806342ec38e2146103305780635f34547a14610360578063600a1aef1461037c576101a9565b806320c5429b146102a857806323b872dd146102c457806334461067146102e0576101a9565b806301ffc9a7146101ae57806303e9e609146101de57806306fdde031461020e578063081812fc1461022c578063095ea7b31461025c5780630dd5ee1b14610278575b600080fd5b6101c860048036038101906101c39190612768565b6105a2565b6040516101d591906127b0565b60405180910390f35b6101f860048036038101906101f39190612801565b61061c565b604051610205919061297f565b60405180910390f35b6102166107d2565b60405161022391906129eb565b60405180910390f35b61024660048036038101906102419190612801565b610864565b6040516102539190612a4e565b60405180910390f35b61027660048036038101906102719190612a95565b610880565b005b610292600480360381019061028d9190612b01565b610896565b60405161029f91906127b0565b60405180910390f35b6102c260048036038101906102bd9190612801565b610978565b005b6102de60048036038101906102d99190612b41565b610a4d565b005b6102fa60048036038101906102f59190612801565b610b4f565b60405161030b959493929190612bb2565b60405180910390f35b61032e60048036038101906103299190612b41565b610c42565b005b61034a60048036038101906103459190612c0c565b610c62565b6040516103579190612c48565b60405180910390f35b61037a60048036038101906103759190612c8f565b610c7a565b005b61039660048036038101906103919190612d21565b610cd6565b6040516103a39190612c48565b60405180910390f35b6103c660048036038101906103c19190612801565b610f6f565b6040516103d39190612a4e565b60405180910390f35b6103f660048036038101906103f19190612c0c565b610f81565b6040516104039190612c48565b60405180910390f35b61041461103b565b005b610430600480360381019061042b9190612d95565b61104f565b005b61043a611276565b6040516104479190612a4e565b60405180910390f35b6104586112a0565b60405161046591906129eb565b60405180910390f35b61048860048036038101906104839190612e09565b611332565b005b6104a4600480360381019061049f9190612801565b611348565b6040516104b191906127b0565b60405180910390f35b6104d460048036038101906104cf9190612f79565b6113c0565b005b6104f060048036038101906104eb9190612c0c565b6113e5565b6040516104ff93929190612ffc565b60405180910390f35b610522600480360381019061051d9190612801565b6114ae565b60405161052f91906129eb565b60405180910390f35b610540611517565b60405161054d91906127b0565b60405180910390f35b610570600480360381019061056b9190613033565b61152a565b60405161057d91906127b0565b60405180910390f35b6105a0600480360381019061059b9190612c0c565b6115be565b005b60007fb45a3c0e000000000000000000000000000000000000000000000000000000007bffffffffffffffffffffffffffffffffffffffffffffffffffffffff1916827bffffffffffffffffffffffffffffffffffffffffffffffffffffffff19161480610615575061061482611644565b5b9050919050565b6106246126b4565b600073ffffffffffffffffffffffffffffffffffffffff1661064583611726565b73ffffffffffffffffffffffffffffffffffffffff1603610692576040517fc1ab6dc100000000000000000000000000000000000000000000000000000000815260040160405180910390fd5b600860008381526020019081526020016000206040518060a0016040529081600082015481526020016001820180546106ca906130a2565b80601f01602080910402602001604051908101604052809291908181526020018280546106f6906130a2565b80156107435780601f1061071857610100808354040283529160200191610743565b820191906000526020600020905b81548152906001019060200180831161072657829003601f168201915b505050505081526020016002820160009054906101000a900467ffffffffffffffff1667ffffffffffffffff1667ffffffffffffffff1681526020016002820160089054906101000a900467ffffffffffffffff1667ffffffffffffffff1667ffffffffffffffff1681526020016002820160109054906101000a900460ff1615151515815250509050919050565b6060600080546107e1906130a2565b80601f016020809104026020016040519081016040528092919081815260200182805461080d906130a2565b801561085a5780601f1061082f5761010080835404028352916020019161085a565b820191906000526020600020905b81548152906001019060200180831161083d57829003601f168201915b5050505050905090565b600061086f82611763565b50610879826117eb565b9050919050565b610892828261088d611828565b611830565b5050565b600080600960008573ffffffffffffffffffffffffffffffffffffffff1673ffffffffffffffffffffffffffffffffffffffff168152602001908152602001600020549050600081148061091e5750600073ffffffffffffffffffffffffffffffffffffffff1661090682611726565b73ffffffffffffffffffffffffffffffffffffffff16145b1561092d576000915050610972565b60006008600083815260200190815260200160002090508060020160109054906101000a900460ff161561096657600092505050610972565b83816000015414925050505b92915050565b610980611842565b600073ffffffffffffffffffffffffffffffffffffffff166109a182611726565b73ffffffffffffffffffffffffffffffffffffffff16036109ee576040517fc1ab6dc100000000000000000000000000000000000000000000000000000000815260040160405180910390fd5b60016008600083815260200190815260200160002060020160106101000a81548160ff021916908315150217905550807f61e27b0bfd8e18e6b92ec32ce1c28bb698d27bfe93e84c7e94d4db0a3135c76060405160405180910390a250565b600073ffffffffffffffffffffffffffffffffffffffff168273ffffffffffffffffffffffffffffffffffffffff1603610abf5760006040517f64a0ae92000000000000000000000000000000000000000000000000000000008152600401610ab69190612a4e565b60405180910390fd5b6000610ad38383610ace611828565b6118c9565b90508373ffffffffffffffffffffffffffffffffffffffff168173ffffffffffffffffffffffffffffffffffffffff1614610b49578382826040517f64283d7b000000000000000000000000000000000000000000000000000000008152600401610b40939291906130d3565b60405180910390fd5b50505050565b6008602052806000526040600020600091509050806000015490806001018054610b78906130a2565b80601f0160208091040260200160405190810160405280929190818152602001828054610ba4906130a2565b8015610bf15780601f10610bc657610100808354040283529160200191610bf1565b820191906000526020600020905b815481529060010190602001808311610bd457829003601f168201915b5050505050908060020160009054906101000a900467ffffffffffffffff16908060020160089054906101000a900467ffffffffffffffff16908060020160109054906101000a900460ff16905085565b610c5d838383604051806020016040528060008152506113c0565b505050565b60096020528060005260406000206000915090505481565b610c82611842565b80600a60006101000a81548160ff0219169083151502179055507ffe6a3488c17646f80c6c99bb92df0ca884a5534b4b9b04be64a2db1b7701e84d81604051610ccb91906127b0565b60405180910390a150565b6000610ce0611842565b6000600960008773ffffffffffffffffffffffffffffffffffffffff1673ffffffffffffffffffffffffffffffffffffffff1681526020019081526020016000205414610d59576040517fc68e50c000000000000000000000000000000000000000000000000000000000815260040160405180910390fd5b600760008154610d6890613139565b9190508190559050610d7a858261198d565b6040518060a0016040528085815260200184848080601f016020809104026020016040519081016040528093929190818152602001838380828437600081840152601f19601f8201169050808301925050505050505081526020014267ffffffffffffffff1681526020014267ffffffffffffffff1681526020016000151581525060086000838152602001908152602001600020600082015181600001556020820151816001019081610e2e919061332d565b5060408201518160020160006101000a81548167ffffffffffffffff021916908367ffffffffffffffff16021790555060608201518160020160086101000a81548167ffffffffffffffff021916908367ffffffffffffffff16021790555060808201518160020160106101000a81548160ff02191690831515021790555090505080600960008773ffffffffffffffffffffffffffffffffffffffff1673ffffffffffffffffffffffffffffffffffffffff168152602001908152602001600020819055507f032bc66be43dbccb7487781d168eb7bda224628a3b2c3388bdf69b532a3a161181604051610f239190612c48565b60405180910390a1807f544e9ec8951d49ec0e2f8635d88acaa665652a3d0dcc9cef4c08bfc4239b4f57858585604051610f5f9392919061342c565b60405180910390a2949350505050565b6000610f7a82611763565b9050919050565b60008073ffffffffffffffffffffffffffffffffffffffff168273ffffffffffffffffffffffffffffffffffffffff1603610ff45760006040517f89c62b64000000000000000000000000000000000000000000000000000000008152600401610feb9190612a4e565b60405180910390fd5b600360008373ffffffffffffffffffffffffffffffffffffffff1673ffffffffffffffffffffffffffffffffffffffff168152602001908152602001600020549050919050565b611043611842565b61104d60006119ab565b565b600073ffffffffffffffffffffffffffffffffffffffff1661107085611726565b73ffffffffffffffffffffffffffffffffffffffff16036110bd576040517fc1ab6dc100000000000000000000000000000000000000000000000000000000815260040160405180910390fd5b60006110c885610f6f565b73ffffffffffffffffffffffffffffffffffffffff163373ffffffffffffffffffffffffffffffffffffffff161490506000611102611276565b73ffffffffffffffffffffffffffffffffffffffff163373ffffffffffffffffffffffffffffffffffffffff1614905080806111535750600a60009054906101000a900460ff1680156111525750815b5b611189576040517f25a531dc00000000000000000000000000000000000000000000000000000000815260040160405180910390fd5b60006008600088815260200190815260200160002090508060020160109054906101000a900460ff16156111e9576040517fbfaa03c400000000000000000000000000000000000000000000000000000000815260040160405180910390fd5b8581600001819055508484826001019182611205929190613469565b50428160020160086101000a81548167ffffffffffffffff021916908367ffffffffffffffff160217905550867f544e9ec8951d49ec0e2f8635d88acaa665652a3d0dcc9cef4c08bfc4239b4f578787876040516112659392919061342c565b60405180910390a250505050505050565b6000600660009054906101000a900473ffffffffffffffffffffffffffffffffffffffff16905090565b6060600180546112af906130a2565b80601f01602080910402602001604051908101604052809291908181526020018280546112db906130a2565b80156113285780601f106112fd57610100808354040283529160200191611328565b820191906000526020600020905b81548152906001019060200180831161130b57829003601f168201915b5050505050905090565b61134461133d611828565b8383611a71565b5050565b60008073ffffffffffffffffffffffffffffffffffffffff1661136a83611726565b73ffffffffffffffffffffffffffffffffffffffff16036113b7576040517fc1ab6dc100000000000000000000000000000000000000000000000000000000815260040160405180910390fd5b60019050919050565b6113cb848484610a4d565b6113df6113d6611828565b85858585611be0565b50505050565b6000806000600960008573ffffffffffffffffffffffffffffffffffffffff1673ffffffffffffffffffffffffffffffffffffffff168152602001908152602001600020549150600082141580156114725750600073ffffffffffffffffffffffffffffffffffffffff1661145983611726565b73ffffffffffffffffffffffffffffffffffffffff1614155b9250826114805760006114a5565b6008600083815260200190815260200160002060020160109054906101000a900460ff165b90509193909250565b60606114b982611763565b5060006114c4611d91565b905060008151116114e4576040518060200160405280600081525061150f565b806114ee84611da8565b6040516020016114ff929190613575565b6040516020818303038152906040525b915050919050565b600a60009054906101000a900460ff1681565b6000600560008473ffffffffffffffffffffffffffffffffffffffff1673ffffffffffffffffffffffffffffffffffffffff16815260200190815260200160002060008373ffffffffffffffffffffffffffffffffffffffff1673ffffffffffffffffffffffffffffffffffffffff16815260200190815260200160002060009054906101000a900460ff16905092915050565b6115c6611842565b600073ffffffffffffffffffffffffffffffffffffffff168173ffffffffffffffffffffffffffffffffffffffff16036116385760006040517f1e4fbdf700000000000000000000000000000000000000000000000000000000815260040161162f9190612a4e565b60405180910390fd5b611641816119ab565b50565b60007f80ac58cd000000000000000000000000000000000000000000000000000000007bffffffffffffffffffffffffffffffffffffffffffffffffffffffff1916827bffffffffffffffffffffffffffffffffffffffffffffffffffffffff1916148061170f57507f5b5e139f000000000000000000000000000000000000000000000000000000007bffffffffffffffffffffffffffffffffffffffffffffffffffffffff1916827bffffffffffffffffffffffffffffffffffffffffffffffffffffffff1916145b8061171f575061171e82611e76565b5b9050919050565b60006002600083815260200190815260200160002060009054906101000a900473ffffffffffffffffffffffffffffffffffffffff169050919050565b60008061176f83611726565b9050600073ffffffffffffffffffffffffffffffffffffffff168173ffffffffffffffffffffffffffffffffffffffff16036117e257826040517f7e2732890000000000000000000000000000000000000000000000000000000081526004016117d99190612c48565b60405180910390fd5b80915050919050565b60006004600083815260200190815260200160002060009054906101000a900473ffffffffffffffffffffffffffffffffffffffff169050919050565b600033905090565b61183d8383836001611ee0565b505050565b61184a611828565b73ffffffffffffffffffffffffffffffffffffffff16611868611276565b73ffffffffffffffffffffffffffffffffffffffff16146118c75761188b611828565b6040517f118cdaa70000000000000000000000000000000000000000000000000000000081526004016118be9190612a4e565b60405180910390fd5b565b6000806118d584611726565b9050600073ffffffffffffffffffffffffffffffffffffffff168173ffffffffffffffffffffffffffffffffffffffff16141580156119415750600073ffffffffffffffffffffffffffffffffffffffff168573ffffffffffffffffffffffffffffffffffffffff1614155b15611978576040517f9cbe235700000000000000000000000000000000000000000000000000000000815260040160405180910390fd5b6119838585856120a5565b9150509392505050565b6119a78282604051806020016040528060008152506122bf565b5050565b6000600660009054906101000a900473ffffffffffffffffffffffffffffffffffffffff16905081600660006101000a81548173ffffffffffffffffffffffffffffffffffffffff021916908373ffffffffffffffffffffffffffffffffffffffff1602179055508173ffffffffffffffffffffffffffffffffffffffff168173ffffffffffffffffffffffffffffffffffffffff167f8be0079c531659141344cd1fd0a4f28419497f9722a3daafe3b4186f6b6457e060405160405180910390a35050565b600073ffffffffffffffffffffffffffffffffffffffff168273ffffffffffffffffffffffffffffffffffffffff1603611ae257816040517f5b08ba18000000000000000000000000000000000000000000000000000000008152600401611ad99190612a4e565b60405180910390fd5b80600560008573ffffffffffffffffffffffffffffffffffffffff1673ffffffffffffffffffffffffffffffffffffffff16815260200190815260200160002060008473ffffffffffffffffffffffffffffffffffffffff1673ffffffffffffffffffffffffffffffffffffffff16815260200190815260200160002060006101000a81548160ff0219169083151502179055508173ffffffffffffffffffffffffffffffffffffffff168373ffffffffffffffffffffffffffffffffffffffff167f17307eab39ab6107e8899845ad3d59bd9653f200f220920489ca2b5937696c3183604051611bd391906127b0565b60405180910390a3505050565b60008373ffffffffffffffffffffffffffffffffffffffff163b1115611d8a578273ffffffffffffffffffffffffffffffffffffffff1663150b7a02868685856040518563ffffffff1660e01b8152600401611c3f94939291906135ee565b6020604051808303816000875af1925050508015611c7b57506040513d601f19601f82011682018060405250810190611c78919061364f565b60015b611cff573d8060008114611cab576040519150601f19603f3d011682016040523d82523d6000602084013e611cb0565b606091505b506000815103611cf757836040517f64a0ae92000000000000000000000000000000000000000000000000000000008152600401611cee9190612a4e565b60405180910390fd5b805160208201fd5b63150b7a0260e01b7bffffffffffffffffffffffffffffffffffffffffffffffffffffffff1916817bffffffffffffffffffffffffffffffffffffffffffffffffffffffff191614611d8857836040517f64a0ae92000000000000000000000000000000000000000000000000000000008152600401611d7f9190612a4e565b60405180910390fd5b505b5050505050565b606060405180602001604052806000815250905090565b606060006001611db7846122e3565b01905060008167ffffffffffffffff811115611dd657611dd5612e4e565b5b6040519080825280601f01601f191660200182016040528015611e085781602001600182028036833780820191505090505b509050600082602083010190505b600115611e6b578080600190039150507f3031323334353637383961626364656600000000000000000000000000000000600a86061a8153600a8581611e5f57611e5e61367c565b5b04945060008503611e16575b819350505050919050565b60007f01ffc9a7000000000000000000000000000000000000000000000000000000007bffffffffffffffffffffffffffffffffffffffffffffffffffffffff1916827bffffffffffffffffffffffffffffffffffffffffffffffffffffffff1916149050919050565b8080611f195750600073ffffffffffffffffffffffffffffffffffffffff168273ffffffffffffffffffffffffffffffffffffffff1614155b1561204d576000611f2984611763565b9050600073ffffffffffffffffffffffffffffffffffffffff168373ffffffffffffffffffffffffffffffffffffffff1614158015611f9457508273ffffffffffffffffffffffffffffffffffffffff168173ffffffffffffffffffffffffffffffffffffffff1614155b8015611fa75750611fa5818461152a565b155b15611fe957826040517fa9fbf51f000000000000000000000000000000000000000000000000000000008152600401611fe09190612a4e565b60405180910390fd5b811561204b57838573ffffffffffffffffffffffffffffffffffffffff168273ffffffffffffffffffffffffffffffffffffffff167f8c5be1e5ebec7d5bd14f71427d1e84f3dd0314c0f7b2291e5b200ac8c7c3b92560405160405180910390a45b505b836004600085815260200190815260200160002060006101000a81548173ffffffffffffffffffffffffffffffffffffffff021916908373ffffffffffffffffffffffffffffffffffffffff16021790555050505050565b6000806120b184611726565b9050600073ffffffffffffffffffffffffffffffffffffffff168373ffffffffffffffffffffffffffffffffffffffff16146120f3576120f2818486612436565b5b600073ffffffffffffffffffffffffffffffffffffffff168173ffffffffffffffffffffffffffffffffffffffff161461218457612135600085600080611ee0565b6001600360008373ffffffffffffffffffffffffffffffffffffffff1673ffffffffffffffffffffffffffffffffffffffff168152602001908152602001600020600082825403925050819055505b600073ffffffffffffffffffffffffffffffffffffffff168573ffffffffffffffffffffffffffffffffffffffff1614612207576001600360008773ffffffffffffffffffffffffffffffffffffffff1673ffffffffffffffffffffffffffffffffffffffff168152602001908152602001600020600082825401925050819055505b846002600086815260200190815260200160002060006101000a81548173ffffffffffffffffffffffffffffffffffffffff021916908373ffffffffffffffffffffffffffffffffffffffff160217905550838573ffffffffffffffffffffffffffffffffffffffff168273ffffffffffffffffffffffffffffffffffffffff167fddf252ad1be2c89b69c2b068fc378daa952ba7f163c4a11628f55a4df523b3ef60405160405180910390a4809150509392505050565b6122c983836124fa565b6122de6122d4611828565b6000858585611be0565b505050565b600080600090507a184f03e93ff9f4daa797ed6e38ed64bf6a1f0100000000000000008310612341577a184f03e93ff9f4daa797ed6e38ed64bf6a1f01000000000000000083816123375761233661367c565b5b0492506040810190505b6d04ee2d6d415b85acef8100000000831061237e576d04ee2d6d415b85acef810000000083816123745761237361367c565b5b0492506020810190505b662386f26fc1000083106123ad57662386f26fc1000083816123a3576123a261367c565b5b0492506010810190505b6305f5e10083106123d6576305f5e10083816123cc576123cb61367c565b5b0492506008810190505b61271083106123fb5761271083816123f1576123f061367c565b5b0492506004810190505b6064831061241e57606483816124145761241361367c565b5b0492506002810190505b600a831061242d576001810190505b80915050919050565b6124418383836125f3565b6124f557600073ffffffffffffffffffffffffffffffffffffffff168373ffffffffffffffffffffffffffffffffffffffff16036124b657806040517f7e2732890000000000000000000000000000000000000000000000000000000081526004016124ad9190612c48565b60405180910390fd5b81816040517f177e802f0000000000000000000000000000000000000000000000000000000081526004016124ec9291906136ab565b60405180910390fd5b505050565b600073ffffffffffffffffffffffffffffffffffffffff168273ffffffffffffffffffffffffffffffffffffffff160361256c5760006040517f64a0ae920000000000000000000000000000000000000000000000000000000081526004016125639190612a4e565b60405180910390fd5b600061257a838360006118c9565b9050600073ffffffffffffffffffffffffffffffffffffffff168173ffffffffffffffffffffffffffffffffffffffff16146125ee5760006040517f73c6ac6e0000000000000000000000000000000000000000000000000000000081526004016125e59190612a4e565b60405180910390fd5b505050565b60008073ffffffffffffffffffffffffffffffffffffffff168373ffffffffffffffffffffffffffffffffffffffff16141580156126ab57508273ffffffffffffffffffffffffffffffffffffffff168473ffffffffffffffffffffffffffffffffffffffff16148061266c575061266b848461152a565b5b806126aa57508273ffffffffffffffffffffffffffffffffffffffff16612692836117eb565b73ffffffffffffffffffffffffffffffffffffffff16145b5b90509392505050565b6040518060a001604052806000801916815260200160608152602001600067ffffffffffffffff168152602001600067ffffffffffffffff1681526020016000151581525090565b6000604051905090565b600080fd5b600080fd5b60007fffffffff0000000000000000000000000000000000000000000000000000000082169050919050565b61274581612710565b811461275057600080fd5b50565b6000813590506127628161273c565b92915050565b60006020828403121561277e5761277d612706565b5b600061278c84828501612753565b91505092915050565b60008115159050919050565b6127aa81612795565b82525050565b60006020820190506127c560008301846127a1565b92915050565b6000819050919050565b6127de816127cb565b81146127e957600080fd5b50565b6000813590506127fb816127d5565b92915050565b60006020828403121561281757612816612706565b5b6000612825848285016127ec565b91505092915050565b6000819050919050565b6128418161282e565b82525050565b600081519050919050565b600082825260208201905092915050565b60005b83811015612881578082015181840152602081019050612866565b60008484015250505050565b6000601f19601f8301169050919050565b60006128a982612847565b6128b38185612852565b93506128c3818560208601612863565b6128cc8161288d565b840191505092915050565b600067ffffffffffffffff82169050919050565b6128f4816128d7565b82525050565b61290381612795565b82525050565b600060a0830160008301516129216000860182612838565b5060208301518482036020860152612939828261289e565b915050604083015161294e60408601826128eb565b50606083015161296160608601826128eb565b50608083015161297460808601826128fa565b508091505092915050565b600060208201905081810360008301526129998184612909565b905092915050565b600082825260208201905092915050565b60006129bd82612847565b6129c781856129a1565b93506129d7818560208601612863565b6129e08161288d565b840191505092915050565b60006020820190508181036000830152612a0581846129b2565b905092915050565b600073ffffffffffffffffffffffffffffffffffffffff82169050919050565b6000612a3882612a0d565b9050919050565b612a4881612a2d565b82525050565b6000602082019050612a636000830184612a3f565b92915050565b612a7281612a2d565b8114612a7d57600080fd5b50565b600081359050612a8f81612a69565b92915050565b60008060408385031215612aac57612aab612706565b5b6000612aba85828601612a80565b9250506020612acb858286016127ec565b9150509250929050565b612ade8161282e565b8114612ae957600080fd5b50565b600081359050612afb81612ad5565b92915050565b60008060408385031215612b1857612b17612706565b5b6000612b2685828601612a80565b9250506020612b3785828601612aec565b9150509250929050565b600080600060608486031215612b5a57612b59612706565b5b6000612b6886828701612a80565b9350506020612b7986828701612a80565b9250506040612b8a868287016127ec565b9150509250925092565b612b9d8161282e565b82525050565b612bac816128d7565b82525050565b600060a082019050612bc76000830188612b94565b8181036020830152612bd981876129b2565b9050612be86040830186612ba3565b612bf56060830185612ba3565b612c0260808301846127a1565b9695505050505050565b600060208284031215612c2257612c21612706565b5b6000612c3084828501612a80565b91505092915050565b612c42816127cb565b82525050565b6000602082019050612c5d6000830184612c39565b92915050565b612c6c81612795565b8114612c7757600080fd5b50565b600081359050612c8981612c63565b92915050565b600060208284031215612ca557612ca4612706565b5b6000612cb384828501612c7a565b91505092915050565b600080fd5b600080fd5b600080fd5b60008083601f840112612ce157612ce0612cbc565b5b8235905067ffffffffffffffff811115612cfe57612cfd612cc1565b5b602083019150836001820283011115612d1a57612d19612cc6565b5b9250929050565b60008060008060608587031215612d3b57612d3a612706565b5b6000612d4987828801612a80565b9450506020612d5a87828801612aec565b935050604085013567ffffffffffffffff811115612d7b57612d7a61270b565b5b612d8787828801612ccb565b925092505092959194509250565b60008060008060608587031215612daf57612dae612706565b5b6000612dbd878288016127ec565b9450506020612dce87828801612aec565b935050604085013567ffffffffffffffff811115612def57612dee61270b565b5b612dfb87828801612ccb565b925092505092959194509250565b60008060408385031215612e2057612e1f612706565b5b6000612e2e85828601612a80565b9250506020612e3f85828601612c7a565b9150509250929050565b600080fd5b7f4e487b7100000000000000000000000000000000000000000000000000000000600052604160045260246000fd5b612e868261288d565b810181811067ffffffffffffffff82111715612ea557612ea4612e4e565b5b80604052505050565b6000612eb86126fc565b9050612ec48282612e7d565b919050565b600067ffffffffffffffff821115612ee457612ee3612e4e565b5b612eed8261288d565b9050602081019050919050565b82818337600083830152505050565b6000612f1c612f1784612ec9565b612eae565b905082815260208101848484011115612f3857612f37612e49565b5b612f43848285612efa565b509392505050565b600082601f830112612f6057612f5f612cbc565b5b8135612f70848260208601612f09565b91505092915050565b60008060008060808587031215612f9357612f92612706565b5b6000612fa187828801612a80565b9450506020612fb287828801612a80565b9350506040612fc3878288016127ec565b925050606085013567ffffffffffffffff811115612fe457612fe361270b565b5b612ff087828801612f4b565b91505092959194509250565b600060608201905061301160008301866127a1565b61301e6020830185612c39565b61302b60408301846127a1565b949350505050565b6000806040838503121561304a57613049612706565b5b600061305885828601612a80565b925050602061306985828601612a80565b9150509250929050565b7f4e487b7100000000000000000000000000000000000000000000000000000000600052602260045260246000fd5b600060028204905060018216806130ba57607f821691505b6020821081036130cd576130cc613073565b5b50919050565b60006060820190506130e86000830186612a3f565b6130f56020830185612c39565b6131026040830184612a3f565b949350505050565b7f4e487b7100000000000000000000000000000000000000000000000000000000600052601160045260246000fd5b6000613144826127cb565b91507fffffffffffffffffffffffffffffffffffffffffffffffffffffffffffffffff82036131765761317561310a565b5b600182019050919050565b60008190508160005260206000209050919050565b60006020601f8301049050919050565b600082821b905092915050565b6000600883026131e37fffffffffffffffffffffffffffffffffffffffffffffffffffffffffffffffff826131a6565b6131ed86836131a6565b95508019841693508086168417925050509392505050565b6000819050919050565b600061322a613225613220846127cb565b613205565b6127cb565b9050919050565b6000819050919050565b6132448361320f565b61325861325082613231565b8484546131b3565b825550505050565b600090565b61326d613260565b61327881848461323b565b505050565b5b8181101561329c57613291600082613265565b60018101905061327e565b5050565b601f8211156132e1576132b281613181565b6132bb84613196565b810160208510156132ca578190505b6132de6132d685613196565b83018261327d565b50505b505050565b600082821c905092915050565b6000613304600019846008026132e6565b1980831691505092915050565b600061331d83836132f3565b9150826002028217905092915050565b61333682612847565b67ffffffffffffffff81111561334f5761334e612e4e565b5b61335982546130a2565b6133648282856132a0565b600060209050601f8311600181146133975760008415613385578287015190505b61338f8582613311565b8655506133f7565b601f1984166133a586613181565b60005b828110156133cd578489015182556001820191506020850194506020810190506133a8565b868310156133ea57848901516133e6601f8916826132f3565b8355505b6001600288020188555050505b505050505050565b600061340b83856129a1565b9350613418838584612efa565b6134218361288d565b840190509392505050565b60006040820190506134416000830186612b94565b81810360208301526134548184866133ff565b9050949350505050565b600082905092915050565b613473838361345e565b67ffffffffffffffff81111561348c5761348b612e4e565b5b61349682546130a2565b6134a18282856132a0565b6000601f8311600181146134d057600084156134be578287013590505b6134c88582613311565b865550613530565b601f1984166134de86613181565b60005b82811015613506578489013582556001820191506020850194506020810190506134e1565b86831015613523578489013561351f601f8916826132f3565b8355505b6001600288020188555050505b50505050505050565b600081905092915050565b600061354f82612847565b6135598185613539565b9350613569818560208601612863565b80840191505092915050565b60006135818285613544565b915061358d8284613544565b91508190509392505050565b600081519050919050565b600082825260208201905092915050565b60006135c082613599565b6135ca81856135a4565b93506135da818560208601612863565b6135e38161288d565b840191505092915050565b60006080820190506136036000830187612a3f565b6136106020830186612a3f565b61361d6040830185612c39565b818103606083015261362f81846135b5565b905095945050505050565b6000815190506136498161273c565b92915050565b60006020828403121561366557613664612706565b5b60006136738482850161363a565b91505092915050565b7f4e487b7100000000000000000000000000000000000000000000000000000000600052601260045260246000fd5b60006040820190506136c06000830185612a3f565b6136cd6020830184612c39565b939250505056fea26469706673582212204435af8ca4b0f6019e4511c329c6b6a9a8e2237f9a25884d2df4b1608ca9493564736f6c63430008180033",
  "linkReferences": {},
  "deployedLinkReferences": {}
}